{"abi":[{"inputs":[{"internalType":"address payable","name":"_address","type":"address"},{"internalType":"uint256","name":"_power","type":"uint256"},{"internalType":"int256","name":"_price","type":"int256"}],"name":"addNodes","outputs":[],"stateMutability":"payable","type":"function"},{"inputs":[{"internalType":"address","name":"","type":"address"}],"name":"addressToPrice","outputs":[{"internalType":"int256","name":"","type":"int256"}],"stateMutability":"view","type":"function"},{"inputs":[{"internalType":"address","name":"c2","type":"address"},{"internalType":"address","name":"c1","type":"address"}],"name":"contractToNode1","outputs":[],"stateMutability":"payable","type":"function"},{"inputs":[{"internalType":"address","name":"c3","type":"address"},{"internalType":"address","name":"c2","type":"address"}],"name":"contractToNode2","outputs":[],"stateMutability":"payable","type":"function"},{"inputs":[{"internalType":"address","name":"c1","type":"address"},{"internalType":"address","name":"c3","type":"address"}],"name":"contractToNode3","outputs":[],"stateMutability":"payable","type":"function"},{"inputs":[{"internalType":"uint256","name":"","type":"uint256"}],"name":"nodes","outputs":[{"internalType":"address payable","name":"addr","type":"address"},{"internalType":"uint256","name":"power","type":"uint256"},{"internalType":"int256","name":"price","type":"int256"},{"internalType":"bool","name":"forward","type":"bool"}],"stateMutability":"view","type":"function"},{"inputs":[{"internalType":"address","name":"c","type":"address"}],"name":"sendToContract","outputs":[],"stateMutability":"payable","type":"function"}],"bytecode":"608060405234801561001057600080fd5b5061061f806100206000396000f3fe6080604052600436106100705760003560e01c8063a72d40f71161004e578063a72d40f714610116578063d40acaaf14610129578063f4cf075d1461013c578063f809e3991461014f57600080fd5b80631a597ba1146100755780631c53c2801461008a5780636c90157b146100db575b600080fd5b6100886100833660046104fe565b610162565b005b34801561009657600080fd5b506100aa6100a5366004610522565b61019b565b604080516001600160a01b039095168552602085019390935291830152151560608201526080015b60405180910390f35b3480156100e757600080fd5b506101086100f63660046104fe565b60016020526000908152604090205481565b6040519081526020016100d2565b61008861012436600461053b565b6101e2565b61008861013736600461053b565b6102b7565b61008861014a366004610574565b610332565b61008861015d36600461053b565b610469565b6040516001600160a01b038216903480156108fc02916000818181858888f19350505050158015610197573d6000803e3d6000fd5b5050565b600081815481106101ab57600080fd5b600091825260209091206004909102018054600182015460028301546003909301546001600160a01b039092169350919060ff1684565b60006002815481106101f6576101f66105a9565b600091825260209091206003600490920201015460ff161515600103610250576040516001600160a01b038316903480156108fc02916000818181858888f1935050505015801561024b573d6000803e3d6000fd5b505050565b6000600281548110610264576102646105a9565b6000918252602082206003600490920201015460ff1615159003610197576040516001600160a01b038216903480156108fc02916000818181858888f1935050505015801561024b573d6000803e3d6000fd5b600080815481106102ca576102ca6105a9565b600091825260209091206003600490920201015460ff16151560010361031f576040516001600160a01b038316903480156108fc02916000818181858888f1935050505015801561024b573d6000803e3d6000fd5b60008081548110610264576102646105a9565b6001600160a01b0383166000908152600160208190526040822083905590821261035e5750600161036d565b50600061036a826105bf565b91505b604080516080810182526001600160a01b03958616815260208101948552908101928352901515606082019081526000805460018101825590805291517f290decd9548b62a8d60345a988386fc84ba6bc95484008f6362f93160ef3e563600490930292830180546001600160a01b031916919096161790945591517f290decd9548b62a8d60345a988386fc84ba6bc95484008f6362f93160ef3e564830155517f290decd9548b62a8d60345a988386fc84ba6bc95484008f6362f93160ef3e56582015590517f290decd9548b62a8d60345a988386fc84ba6bc95484008f6362f93160ef3e566909101805460ff1916911515919091179055565b600060018154811061047d5761047d6105a9565b600091825260209091206003600490920201015460ff1615156001036104d2576040516001600160a01b038316903480156108fc02916000818181858888f1935050505015801561024b573d6000803e3d6000fd5b6000600181548110610264576102646105a9565b6001600160a01b03811681146104fb57600080fd5b50565b60006020828403121561051057600080fd5b813561051b816104e6565b9392505050565b60006020828403121561053457600080fd5b5035919050565b6000806040838503121561054e57600080fd5b8235610559816104e6565b91506020830135610569816104e6565b809150509250929050565b60008060006060848603121561058957600080fd5b8335610594816104e6565b95602085013595506040909401359392505050565b634e487b7160e01b600052603260045260246000fd5b6000600160ff1b82016105e257634e487b7160e01b600052601160045260246000fd5b506000039056fea26469706673582212208b4572a461449360f51ed0fde9f30ee5cb2e795919de8fdc6a1dfa7a6e66e35a64736f6c63430008110033","bytecodeSha1":"9d40c829bece1e687c2881056e9cabc70bea8919","compiler":{"evm_version":"istanbul","optimizer":{"enabled":true,"runs":200},"version":"0.8.17+commit.8df45f5f"},"contractName":"ElectricityTrading_test","language":"Solidity","natspec":{"kind":"dev","methods":{},"version":1},"opcodes":"PUSH1 0x80 PUSH1 0x40 MSTORE PUSH1 0x4 CALLDATASIZE LT PUSH2 0x70 JUMPI PUSH1 0x0 CALLDATALOAD PUSH1 0xE0 SHR DUP1 PUSH4 0xA72D40F7 GT PUSH2 0x4E JUMPI DUP1 PUSH4 0xA72D40F7 EQ PUSH2 0x116 JUMPI DUP1 PUSH4 0xD40ACAAF EQ PUSH2 0x129 JUMPI DUP1 PUSH4 0xF4CF075D EQ PUSH2 0x13C JUMPI DUP1 PUSH4 0xF809E399 EQ PUSH2 0x14F JUMPI PUSH1 0x0 DUP1 REVERT JUMPDEST DUP1 PUSH4 0x1A597BA1 EQ PUSH2 0x75 JUMPI DUP1 PUSH4 0x1C53C280 EQ PUSH2 0x8A JUMPI DUP1 PUSH4 0x6C90157B EQ PUSH2 0xDB JUMPI JUMPDEST PUSH1 0x0 DUP1 REVERT JUMPDEST PUSH2 0x88 PUSH2 0x83 CALLDATASIZE PUSH1 0x4 PUSH2 0x4FE JUMP JUMPDEST PUSH2 0x162 JUMP JUMPDEST STOP JUMPDEST CALLVALUE DUP1 ISZERO PUSH2 0x96 JUMPI PUSH1 0x0 DUP1 REVERT JUMPDEST POP PUSH2 0xAA PUSH2 0xA5 CALLDATASIZE PUSH1 0x4 PUSH2 0x522 JUMP JUMPDEST PUSH2 0x19B JUMP JUMPDEST PUSH1 0x40 DUP1 MLOAD PUSH1 0x1 PUSH1 0x1 PUSH1 0xA0 SHL SUB SWAP1 SWAP6 AND DUP6 MSTORE PUSH1 0x20 DUP6 ADD SWAP4 SWAP1 SWAP4 MSTORE SWAP2 DUP4 ADD MSTORE ISZERO ISZERO PUSH1 0x60 DUP3 ADD MSTORE PUSH1 0x80 ADD JUMPDEST PUSH1 0x40 MLOAD DUP1 SWAP2 SUB SWAP1 RETURN JUMPDEST CALLVALUE DUP1 ISZERO PUSH2 0xE7 JUMPI PUSH1 0x0 DUP1 REVERT JUMPDEST POP PUSH2 0x108 PUSH2 0xF6 CALLDATASIZE PUSH1 0x4 PUSH2 0x4FE JUMP JUMPDEST PUSH1 0x1 PUSH1 0x20 MSTORE PUSH1 0x0 SWAP1 DUP2 MSTORE PUSH1 0x40 SWAP1 KECCAK256 SLOAD DUP2 JUMP JUMPDEST PUSH1 0x40 MLOAD SWAP1 DUP2 MSTORE PUSH1 0x20 ADD PUSH2 0xD2 JUMP JUMPDEST PUSH2 0x88 PUSH2 0x124 CALLDATASIZE PUSH1 0x4 PUSH2 0x53B JUMP JUMPDEST PUSH2 0x1E2 JUMP JUMPDEST PUSH2 0x88 PUSH2 0x137 CALLDATASIZE PUSH1 0x4 PUSH2 0x53B JUMP JUMPDEST PUSH2 0x2B7 JUMP JUMPDEST PUSH2 0x88 PUSH2 0x14A CALLDATASIZE PUSH1 0x4 PUSH2 0x574 JUMP JUMPDEST PUSH2 0x332 JUMP JUMPDEST PUSH2 0x88 PUSH2 0x15D CALLDATASIZE PUSH1 0x4 PUSH2 0x53B JUMP JUMPDEST PUSH2 0x469 JUMP JUMPDEST PUSH1 0x40 MLOAD PUSH1 0x1 PUSH1 0x1 PUSH1 0xA0 SHL SUB DUP3 AND SWAP1 CALLVALUE DUP1 ISZERO PUSH2 0x8FC MUL SWAP2 PUSH1 0x0 DUP2 DUP2 DUP2 DUP6 DUP9 DUP9 CALL SWAP4 POP POP POP POP ISZERO DUP1 ISZERO PUSH2 0x197 JUMPI RETURNDATASIZE PUSH1 0x0 DUP1 RETURNDATACOPY RETURNDATASIZE PUSH1 0x0 REVERT JUMPDEST POP POP JUMP JUMPDEST PUSH1 0x0 DUP2 DUP2 SLOAD DUP2 LT PUSH2 0x1AB JUMPI PUSH1 0x0 DUP1 REVERT JUMPDEST PUSH1 0x0 SWAP2 DUP3 MSTORE PUSH1 0x20 SWAP1 SWAP2 KECCAK256 PUSH1 0x4 SWAP1 SWAP2 MUL ADD DUP1 SLOAD PUSH1 0x1 DUP3 ADD SLOAD PUSH1 0x2 DUP4 ADD SLOAD PUSH1 0x3 SWAP1 SWAP4 ADD SLOAD PUSH1 0x1 PUSH1 0x1 PUSH1 0xA0 SHL SUB SWAP1 SWAP3 AND SWAP4 POP SWAP2 SWAP1 PUSH1 0xFF AND DUP5 JUMP JUMPDEST PUSH1 0x0 PUSH1 0x2 DUP2 SLOAD DUP2 LT PUSH2 0x1F6 JUMPI PUSH2 0x1F6 PUSH2 0x5A9 JUMP JUMPDEST PUSH1 0x0 SWAP2 DUP3 MSTORE PUSH1 0x20 SWAP1 SWAP2 KECCAK256 PUSH1 0x3 PUSH1 0x4 SWAP1 SWAP3 MUL ADD ADD SLOAD PUSH1 0xFF AND ISZERO ISZERO PUSH1 0x1 SUB PUSH2 0x250 JUMPI PUSH1 0x40 MLOAD PUSH1 0x1 PUSH1 0x1 PUSH1 0xA0 SHL SUB DUP4 AND SWAP1 CALLVALUE DUP1 ISZERO PUSH2 0x8FC MUL SWAP2 PUSH1 0x0 DUP2 DUP2 DUP2 DUP6 DUP9 DUP9 CALL SWAP4 POP POP POP POP ISZERO DUP1 ISZERO PUSH2 0x24B JUMPI RETURNDATASIZE PUSH1 0x0 DUP1 RETURNDATACOPY RETURNDATASIZE PUSH1 0x0 REVERT JUMPDEST POP POP POP JUMP JUMPDEST PUSH1 0x0 PUSH1 0x2 DUP2 SLOAD DUP2 LT PUSH2 0x264 JUMPI PUSH2 0x264 PUSH2 0x5A9 JUMP JUMPDEST PUSH1 0x0 SWAP2 DUP3 MSTORE PUSH1 0x20 DUP3 KECCAK256 PUSH1 0x3 PUSH1 0x4 SWAP1 SWAP3 MUL ADD ADD SLOAD PUSH1 0xFF AND ISZERO ISZERO SWAP1 SUB PUSH2 0x197 JUMPI PUSH1 0x40 MLOAD PUSH1 0x1 PUSH1 0x1 PUSH1 0xA0 SHL SUB DUP3 AND SWAP1 CALLVALUE DUP1 ISZERO PUSH2 0x8FC MUL SWAP2 PUSH1 0x0 DUP2 DUP2 DUP2 DUP6 DUP9 DUP9 CALL SWAP4 POP POP POP POP ISZERO DUP1 ISZERO PUSH2 0x24B JUMPI RETURNDATASIZE PUSH1 0x0 DUP1 RETURNDATACOPY RETURNDATASIZE PUSH1 0x0 REVERT JUMPDEST PUSH1 0x0 DUP1 DUP2 SLOAD DUP2 LT PUSH2 0x2CA JUMPI PUSH2 0x2CA PUSH2 0x5A9 JUMP JUMPDEST PUSH1 0x0 SWAP2 DUP3 MSTORE PUSH1 0x20 SWAP1 SWAP2 KECCAK256 PUSH1 0x3 PUSH1 0x4 SWAP1 SWAP3 MUL ADD ADD SLOAD PUSH1 0xFF AND ISZERO ISZERO PUSH1 0x1 SUB PUSH2 0x31F JUMPI PUSH1 0x40 MLOAD PUSH1 0x1 PUSH1 0x1 PUSH1 0xA0 SHL SUB DUP4 AND SWAP1 CALLVALUE DUP1 ISZERO PUSH2 0x8FC MUL SWAP2 PUSH1 0x0 DUP2 DUP2 DUP2 DUP6 DUP9 DUP9 CALL SWAP4 POP POP POP POP ISZERO DUP1 ISZERO PUSH2 0x24B JUMPI RETURNDATASIZE PUSH1 0x0 DUP1 RETURNDATACOPY RETURNDATASIZE PUSH1 0x0 REVERT JUMPDEST PUSH1 0x0 DUP1 DUP2 SLOAD DUP2 LT PUSH2 0x264 JUMPI PUSH2 0x264 PUSH2 0x5A9 JUMP JUMPDEST PUSH1 0x1 PUSH1 0x1 PUSH1 0xA0 SHL SUB DUP4 AND PUSH1 0x0 SWAP1 DUP2 MSTORE PUSH1 0x1 PUSH1 0x20 DUP2 SWAP1 MSTORE PUSH1 0x40 DUP3 KECCAK256 DUP4 SWAP1 SSTORE SWAP1 DUP3 SLT PUSH2 0x35E JUMPI POP PUSH1 0x1 PUSH2 0x36D JUMP JUMPDEST POP PUSH1 0x0 PUSH2 0x36A DUP3 PUSH2 0x5BF JUMP JUMPDEST SWAP2 POP JUMPDEST PUSH1 0x40 DUP1 MLOAD PUSH1 0x80 DUP2 ADD DUP3 MSTORE PUSH1 0x1 PUSH1 0x1 PUSH1 0xA0 SHL SUB SWAP6 DUP7 AND DUP2 MSTORE PUSH1 0x20 DUP2 ADD SWAP5 DUP6 MSTORE SWAP1 DUP2 ADD SWAP3 DUP4 MSTORE SWAP1 ISZERO ISZERO PUSH1 0x60 DUP3 ADD SWAP1 DUP2 MSTORE PUSH1 0x0 DUP1 SLOAD PUSH1 0x1 DUP2 ADD DUP3 SSTORE SWAP1 DUP1 MSTORE SWAP2 MLOAD PUSH32 0x290DECD9548B62A8D60345A988386FC84BA6BC95484008F6362F93160EF3E563 PUSH1 0x4 SWAP1 SWAP4 MUL SWAP3 DUP4 ADD DUP1 SLOAD PUSH1 0x1 PUSH1 0x1 PUSH1 0xA0 SHL SUB NOT AND SWAP2 SWAP1 SWAP7 AND OR SWAP1 SWAP5 SSTORE SWAP2 MLOAD PUSH32 0x290DECD9548B62A8D60345A988386FC84BA6BC95484008F6362F93160EF3E564 DUP4 ADD SSTORE MLOAD PUSH32 0x290DECD9548B62A8D60345A988386FC84BA6BC95484008F6362F93160EF3E565 DUP3 ADD SSTORE SWAP1 MLOAD PUSH32 0x290DECD9548B62A8D60345A988386FC84BA6BC95484008F6362F93160EF3E566 SWAP1 SWAP2 ADD DUP1 SLOAD PUSH1 0xFF NOT AND SWAP2 ISZERO ISZERO SWAP2 SWAP1 SWAP2 OR SWAP1 SSTORE JUMP JUMPDEST PUSH1 0x0 PUSH1 0x1 DUP2 SLOAD DUP2 LT PUSH2 0x47D JUMPI PUSH2 0x47D PUSH2 0x5A9 JUMP JUMPDEST PUSH1 0x0 SWAP2 DUP3 MSTORE PUSH1 0x20 SWAP1 SWAP2 KECCAK256 PUSH1 0x3 PUSH1 0x4 SWAP1 SWAP3 MUL ADD ADD SLOAD PUSH1 0xFF AND ISZERO ISZERO PUSH1 0x1 SUB PUSH2 0x4D2 JUMPI PUSH1 0x40 MLOAD PUSH1 0x1 PUSH1 0x1 PUSH1 0xA0 SHL SUB DUP4 AND SWAP1 CALLVALUE DUP1 ISZERO PUSH2 0x8FC MUL SWAP2 PUSH1 0x0 DUP2 DUP2 DUP2 DUP6 DUP9 DUP9 CALL SWAP4 POP POP POP POP ISZERO DUP1 ISZERO PUSH2 0x24B JUMPI RETURNDATASIZE PUSH1 0x0 DUP1 RETURNDATACOPY RETURNDATASIZE PUSH1 0x0 REVERT JUMPDEST PUSH1 0x0 PUSH1 0x1 DUP2 SLOAD DUP2 LT PUSH2 0x264 JUMPI PUSH2 0x264 PUSH2 0x5A9 JUMP JUMPDEST PUSH1 0x1 PUSH1 0x1 PUSH1 0xA0 SHL SUB DUP2 AND DUP2 EQ PUSH2 0x4FB JUMPI PUSH1 0x0 DUP1 REVERT JUMPDEST POP JUMP JUMPDEST PUSH1 0x0 PUSH1 0x20 DUP3 DUP5 SUB SLT ISZERO PUSH2 0x510 JUMPI PUSH1 0x0 DUP1 REVERT JUMPDEST DUP2 CALLDATALOAD PUSH2 0x51B DUP2 PUSH2 0x4E6 JUMP JUMPDEST SWAP4 SWAP3 POP POP POP JUMP JUMPDEST PUSH1 0x0 PUSH1 0x20 DUP3 DUP5 SUB SLT ISZERO PUSH2 0x534 JUMPI PUSH1 0x0 DUP1 REVERT JUMPDEST POP CALLDATALOAD SWAP2 SWAP1 POP JUMP JUMPDEST PUSH1 0x0 DUP1 PUSH1 0x40 DUP4 DUP6 SUB SLT ISZERO PUSH2 0x54E JUMPI PUSH1 0x0 DUP1 REVERT JUMPDEST DUP3 CALLDATALOAD PUSH2 0x559 DUP2 PUSH2 0x4E6 JUMP JUMPDEST SWAP2 POP PUSH1 0x20 DUP4 ADD CALLDATALOAD PUSH2 0x569 DUP2 PUSH2 0x4E6 JUMP JUMPDEST DUP1 SWAP2 POP POP SWAP3 POP SWAP3 SWAP1 POP JUMP JUMPDEST PUSH1 0x0 DUP1 PUSH1 0x0 PUSH1 0x60 DUP5 DUP7 SUB SLT ISZERO PUSH2 0x589 JUMPI PUSH1 0x0 DUP1 REVERT JUMPDEST DUP4 CALLDATALOAD PUSH2 0x594 DUP2 PUSH2 0x4E6 JUMP JUMPDEST SWAP6 PUSH1 0x20 DUP6 ADD CALLDATALOAD SWAP6 POP PUSH1 0x40 SWAP1 SWAP5 ADD CALLDATALOAD SWAP4 SWAP3 POP POP POP JUMP JUMPDEST PUSH4 0x4E487B71 PUSH1 0xE0 SHL PUSH1 0x0 MSTORE PUSH1 0x32 PUSH1 0x4 MSTORE PUSH1 0x24 PUSH1 0x0 REVERT JUMPDEST PUSH1 0x0 PUSH1 0x1 PUSH1 0xFF SHL DUP3 ADD PUSH2 0x5E2 JUMPI PUSH4 0x4E487B71 PUSH1 0xE0 SHL PUSH1 0x0 MSTORE PUSH1 0x11 PUSH1 0x4 MSTORE PUSH1 0x24 PUSH1 0x0 REVERT JUMPDEST POP PUSH1 0x0 SUB SWAP1 JUMP INVALID LOG2 PUSH5 0x6970667358 0x22 SLT KECCAK256 DUP12 GASLIMIT PUSH19 0xA461449360F51ED0FDE9F30EE5CB2E795919DE DUP16 0xDC PUSH11 0x1DFA7A6E66E35A64736F6C PUSH4 0x43000811 STOP CALLER ","sha1":"b8636735963401a16a3d7a64a50dbec48ea6b049","source":"//SPDX-License-Identifier: MIT\npragma solidity ^0.8.15;\n\ncontract ElectricityTrading_test {\n    // address c;\n    // address c1;\n    // address c2;\n    // address c3;\n    //bool _forward;\n\n    // constructor(address payable _c,address payable _c1,address payable _c2,address payable _c3) payable {\n    //     c = _c;\n    //     c1 = _c1;\n    //     c2 = _c2;\n    //     c3 = _c3;\n    // }\n\n    struct Nodes {\n        address payable addr;\n        uint256 power;\n        int256 price;\n        bool forward;\n    }\n\n    Nodes[] public nodes;\n    mapping(address => int256) public addressToPrice;\n\n    function addNodes(\n        address payable _address,\n        uint256 _power,\n        int256 _price\n    ) public payable {\n        addressToPrice[_address] = _price;\n        bool _forward = true;\n        if (_price >= 0) {\n            _forward = true;\n        } else {\n            _forward = false;\n            _price = -_price;\n        }\n        nodes.push(\n            Nodes({\n                addr: _address,\n                power: _power,\n                price: _price,\n                forward: _forward\n            })\n        );\n    }\n\n    function sendToContract(address c) public payable {\n        //c.transfer(msg.sender);\n        payable(c).transfer(msg.value);\n    }\n\n    function contractToNode1(address c2, address c1) public payable {\n        if (nodes[0].forward == true) {\n            payable(c2).transfer(msg.value);\n        } else if (nodes[0].forward == false) {\n            payable(c1).transfer(msg.value);\n        }\n    }\n\n    function contractToNode2(address c3, address c2) public payable {\n        if (nodes[1].forward == true) {\n            payable(c3).transfer(msg.value);\n        } else if (nodes[1].forward == false) {\n            payable(c2).transfer(msg.value);\n        }\n    }\n\n    function contractToNode3(address c1, address c3) public payable {\n        if (nodes[2].forward == true) {\n            payable(c1).transfer(msg.value);\n        } else if (nodes[2].forward == false) {\n            payable(c3).transfer(msg.value);\n        }\n    }\n}\n","sourcePath":"contracts/ElectricityTrading_test.sol","type":"contract","deployment":{"address":"0x3B8515Ed92021274b18575Ec9bb1Cb38a68Dc238","chainid":"4","blockHeight":11355847}}