{"abi":[{"inputs":[],"stateMutability":"nonpayable","type":"constructor","name":"constructor"},{"inputs":[{"internalType":"address payable","name":"_addr","type":"address"},{"internalType":"int256","name":"_power","type":"int256"},{"internalType":"uint256","name":"_price","type":"uint256"}],"name":"addProsumers","outputs":[],"stateMutability":"payable","type":"function"},{"inputs":[{"internalType":"address","name":"","type":"address"}],"name":"address2power","outputs":[{"internalType":"int256","name":"","type":"int256"}],"stateMutability":"view","type":"function"},{"inputs":[{"internalType":"uint256","name":"","type":"uint256"}],"name":"prosumers","outputs":[{"internalType":"address payable","name":"addr","type":"address"},{"internalType":"int256","name":"power","type":"int256"},{"internalType":"uint256","name":"price","type":"uint256"},{"internalType":"bool","name":"forward","type":"bool"}],"stateMutability":"view","type":"function"},{"inputs":[{"internalType":"address","name":"c","type":"address"}],"name":"send_money","outputs":[],"stateMutability":"payable","type":"function"}],"bytecode":"608060405234801561001057600080fd5b50610392806100206000396000f3fe60806040526004361061003f5760003560e01c80634c2c79dc146100445780634cfe37b5146100595780637ae0e7011461006c578063ba53916e146100bd575b600080fd5b6100576100523660046102c0565b6100f8565b005b6100576100673660046102e4565b610131565b34801561007857600080fd5b5061008c610087366004610319565b610261565b604080516001600160a01b039095168552602085019390935291830152151560608201526080015b60405180910390f35b3480156100c957600080fd5b506100ea6100d83660046102c0565b60016020526000908152604090205481565b6040519081526020016100b4565b6040516001600160a01b038216903480156108fc02916000818181858888f1935050505015801561012d573d6000803e3d6000fd5b5050565b6001600160a01b03831660009081526001602081905260408220849055908312156101655750600061016283610332565b92505b604080516080810182526001600160a01b03958616815260208101948552908101928352901515606082019081526000805460018101825590805291517f290decd9548b62a8d60345a988386fc84ba6bc95484008f6362f93160ef3e563600490930292830180546001600160a01b031916919096161790945591517f290decd9548b62a8d60345a988386fc84ba6bc95484008f6362f93160ef3e564830155517f290decd9548b62a8d60345a988386fc84ba6bc95484008f6362f93160ef3e56582015590517f290decd9548b62a8d60345a988386fc84ba6bc95484008f6362f93160ef3e566909101805460ff1916911515919091179055565b6000818154811061027157600080fd5b600091825260209091206004909102018054600182015460028301546003909301546001600160a01b039092169350919060ff1684565b6001600160a01b03811681146102bd57600080fd5b50565b6000602082840312156102d257600080fd5b81356102dd816102a8565b9392505050565b6000806000606084860312156102f957600080fd5b8335610304816102a8565b95602085013595506040909401359392505050565b60006020828403121561032b57600080fd5b5035919050565b6000600160ff1b820161035557634e487b7160e01b600052601160045260246000fd5b506000039056fea2646970667358221220ec110106a2be25569c030bda73e4436d732b85023fb63532edb4348dd0e01b2464736f6c63430008110033","bytecodeSha1":"4bacbffdd4dd6b146082561598a25c4a0317d7ba","compiler":{"evm_version":"istanbul","optimizer":{"enabled":true,"runs":200},"version":"0.8.17+commit.8df45f5f"},"contractName":"ElectricityTrading_test","language":"Solidity","natspec":{"kind":"dev","methods":{},"version":1},"opcodes":"PUSH1 0x80 PUSH1 0x40 MSTORE PUSH1 0x4 CALLDATASIZE LT PUSH2 0x3F JUMPI PUSH1 0x0 CALLDATALOAD PUSH1 0xE0 SHR DUP1 PUSH4 0x4C2C79DC EQ PUSH2 0x44 JUMPI DUP1 PUSH4 0x4CFE37B5 EQ PUSH2 0x59 JUMPI DUP1 PUSH4 0x7AE0E701 EQ PUSH2 0x6C JUMPI DUP1 PUSH4 0xBA53916E EQ PUSH2 0xBD JUMPI JUMPDEST PUSH1 0x0 DUP1 REVERT JUMPDEST PUSH2 0x57 PUSH2 0x52 CALLDATASIZE PUSH1 0x4 PUSH2 0x2C0 JUMP JUMPDEST PUSH2 0xF8 JUMP JUMPDEST STOP JUMPDEST PUSH2 0x57 PUSH2 0x67 CALLDATASIZE PUSH1 0x4 PUSH2 0x2E4 JUMP JUMPDEST PUSH2 0x131 JUMP JUMPDEST CALLVALUE DUP1 ISZERO PUSH2 0x78 JUMPI PUSH1 0x0 DUP1 REVERT JUMPDEST POP PUSH2 0x8C PUSH2 0x87 CALLDATASIZE PUSH1 0x4 PUSH2 0x319 JUMP JUMPDEST PUSH2 0x261 JUMP JUMPDEST PUSH1 0x40 DUP1 MLOAD PUSH1 0x1 PUSH1 0x1 PUSH1 0xA0 SHL SUB SWAP1 SWAP6 AND DUP6 MSTORE PUSH1 0x20 DUP6 ADD SWAP4 SWAP1 SWAP4 MSTORE SWAP2 DUP4 ADD MSTORE ISZERO ISZERO PUSH1 0x60 DUP3 ADD MSTORE PUSH1 0x80 ADD JUMPDEST PUSH1 0x40 MLOAD DUP1 SWAP2 SUB SWAP1 RETURN JUMPDEST CALLVALUE DUP1 ISZERO PUSH2 0xC9 JUMPI PUSH1 0x0 DUP1 REVERT JUMPDEST POP PUSH2 0xEA PUSH2 0xD8 CALLDATASIZE PUSH1 0x4 PUSH2 0x2C0 JUMP JUMPDEST PUSH1 0x1 PUSH1 0x20 MSTORE PUSH1 0x0 SWAP1 DUP2 MSTORE PUSH1 0x40 SWAP1 KECCAK256 SLOAD DUP2 JUMP JUMPDEST PUSH1 0x40 MLOAD SWAP1 DUP2 MSTORE PUSH1 0x20 ADD PUSH2 0xB4 JUMP JUMPDEST PUSH1 0x40 MLOAD PUSH1 0x1 PUSH1 0x1 PUSH1 0xA0 SHL SUB DUP3 AND SWAP1 CALLVALUE DUP1 ISZERO PUSH2 0x8FC MUL SWAP2 PUSH1 0x0 DUP2 DUP2 DUP2 DUP6 DUP9 DUP9 CALL SWAP4 POP POP POP POP ISZERO DUP1 ISZERO PUSH2 0x12D JUMPI RETURNDATASIZE PUSH1 0x0 DUP1 RETURNDATACOPY RETURNDATASIZE PUSH1 0x0 REVERT JUMPDEST POP POP JUMP JUMPDEST PUSH1 0x1 PUSH1 0x1 PUSH1 0xA0 SHL SUB DUP4 AND PUSH1 0x0 SWAP1 DUP2 MSTORE PUSH1 0x1 PUSH1 0x20 DUP2 SWAP1 MSTORE PUSH1 0x40 DUP3 KECCAK256 DUP5 SWAP1 SSTORE SWAP1 DUP4 SLT ISZERO PUSH2 0x165 JUMPI POP PUSH1 0x0 PUSH2 0x162 DUP4 PUSH2 0x332 JUMP JUMPDEST SWAP3 POP JUMPDEST PUSH1 0x40 DUP1 MLOAD PUSH1 0x80 DUP2 ADD DUP3 MSTORE PUSH1 0x1 PUSH1 0x1 PUSH1 0xA0 SHL SUB SWAP6 DUP7 AND DUP2 MSTORE PUSH1 0x20 DUP2 ADD SWAP5 DUP6 MSTORE SWAP1 DUP2 ADD SWAP3 DUP4 MSTORE SWAP1 ISZERO ISZERO PUSH1 0x60 DUP3 ADD SWAP1 DUP2 MSTORE PUSH1 0x0 DUP1 SLOAD PUSH1 0x1 DUP2 ADD DUP3 SSTORE SWAP1 DUP1 MSTORE SWAP2 MLOAD PUSH32 0x290DECD9548B62A8D60345A988386FC84BA6BC95484008F6362F93160EF3E563 PUSH1 0x4 SWAP1 SWAP4 MUL SWAP3 DUP4 ADD DUP1 SLOAD PUSH1 0x1 PUSH1 0x1 PUSH1 0xA0 SHL SUB NOT AND SWAP2 SWAP1 SWAP7 AND OR SWAP1 SWAP5 SSTORE SWAP2 MLOAD PUSH32 0x290DECD9548B62A8D60345A988386FC84BA6BC95484008F6362F93160EF3E564 DUP4 ADD SSTORE MLOAD PUSH32 0x290DECD9548B62A8D60345A988386FC84BA6BC95484008F6362F93160EF3E565 DUP3 ADD SSTORE SWAP1 MLOAD PUSH32 0x290DECD9548B62A8D60345A988386FC84BA6BC95484008F6362F93160EF3E566 SWAP1 SWAP2 ADD DUP1 SLOAD PUSH1 0xFF NOT AND SWAP2 ISZERO ISZERO SWAP2 SWAP1 SWAP2 OR SWAP1 SSTORE JUMP JUMPDEST PUSH1 0x0 DUP2 DUP2 SLOAD DUP2 LT PUSH2 0x271 JUMPI PUSH1 0x0 DUP1 REVERT JUMPDEST PUSH1 0x0 SWAP2 DUP3 MSTORE PUSH1 0x20 SWAP1 SWAP2 KECCAK256 PUSH1 0x4 SWAP1 SWAP2 MUL ADD DUP1 SLOAD PUSH1 0x1 DUP3 ADD SLOAD PUSH1 0x2 DUP4 ADD SLOAD PUSH1 0x3 SWAP1 SWAP4 ADD SLOAD PUSH1 0x1 PUSH1 0x1 PUSH1 0xA0 SHL SUB SWAP1 SWAP3 AND SWAP4 POP SWAP2 SWAP1 PUSH1 0xFF AND DUP5 JUMP JUMPDEST PUSH1 0x1 PUSH1 0x1 PUSH1 0xA0 SHL SUB DUP2 AND DUP2 EQ PUSH2 0x2BD JUMPI PUSH1 0x0 DUP1 REVERT JUMPDEST POP JUMP JUMPDEST PUSH1 0x0 PUSH1 0x20 DUP3 DUP5 SUB SLT ISZERO PUSH2 0x2D2 JUMPI PUSH1 0x0 DUP1 REVERT JUMPDEST DUP2 CALLDATALOAD PUSH2 0x2DD DUP2 PUSH2 0x2A8 JUMP JUMPDEST SWAP4 SWAP3 POP POP POP JUMP JUMPDEST PUSH1 0x0 DUP1 PUSH1 0x0 PUSH1 0x60 DUP5 DUP7 SUB SLT ISZERO PUSH2 0x2F9 JUMPI PUSH1 0x0 DUP1 REVERT JUMPDEST DUP4 CALLDATALOAD PUSH2 0x304 DUP2 PUSH2 0x2A8 JUMP JUMPDEST SWAP6 PUSH1 0x20 DUP6 ADD CALLDATALOAD SWAP6 POP PUSH1 0x40 SWAP1 SWAP5 ADD CALLDATALOAD SWAP4 SWAP3 POP POP POP JUMP JUMPDEST PUSH1 0x0 PUSH1 0x20 DUP3 DUP5 SUB SLT ISZERO PUSH2 0x32B JUMPI PUSH1 0x0 DUP1 REVERT JUMPDEST POP CALLDATALOAD SWAP2 SWAP1 POP JUMP JUMPDEST PUSH1 0x0 PUSH1 0x1 PUSH1 0xFF SHL DUP3 ADD PUSH2 0x355 JUMPI PUSH4 0x4E487B71 PUSH1 0xE0 SHL PUSH1 0x0 MSTORE PUSH1 0x11 PUSH1 0x4 MSTORE PUSH1 0x24 PUSH1 0x0 REVERT JUMPDEST POP PUSH1 0x0 SUB SWAP1 JUMP INVALID LOG2 PUSH5 0x6970667358 0x22 SLT KECCAK256 0xEC GT ADD MOD LOG2 0xBE 0x25 JUMP SWAP13 SUB SIGNEXTEND 0xDA PUSH20 0xE4436D732B85023FB63532EDB4348DD0E01B2464 PUSH20 0x6F6C634300081100330000000000000000000000 ","sha1":"d4a747029089c5f1dee754fdf3d50590ca6f0fc8","source":"//SPDX-License-Identifier: MIT\npragma solidity ^0.8.15;\n\ncontract ElectricityTrading_test {\n    struct Prosumers {\n        address payable addr;\n        int256 power;\n        uint256 price;\n        bool forward;\n    }\n\n    constructor() {}\n\n    Prosumers[] public prosumers;\n    mapping(address => int256) public address2power;\n\n    function addProsumers(\n        address payable _addr,\n        int256 _power,\n        uint256 _price\n    ) public payable {\n        address2power[_addr] = _power;\n        bool _forward = true;\n        if (_power < 0) {\n            _forward = false;\n            _power = -_power;\n        }\n        prosumers.push(\n            Prosumers({\n                addr: _addr,\n                power: _power,\n                price: _price,\n                forward: _forward\n            })\n        );\n    }\n\n    function send_money(address c) public payable {\n        payable(c).transfer(msg.value);\n    }\n}\n","sourcePath":"contracts/ElectricityTrading_test.sol","type":"contract","deployment":{"address":"0x6660BC71a05c3f73356b69754381e2f7563C1365","chainid":"4","blockHeight":11402140}}