{"abi":[{"inputs":[{"internalType":"address payable","name":"_c","type":"address"}],"stateMutability":"payable","type":"constructor","name":"constructor"},{"inputs":[{"internalType":"address payable","name":"_address","type":"address"},{"internalType":"uint256","name":"_power","type":"uint256"},{"internalType":"int256","name":"_price","type":"int256"}],"name":"addNodes","outputs":[],"stateMutability":"payable","type":"function"},{"inputs":[{"internalType":"address","name":"","type":"address"}],"name":"addressToPrice","outputs":[{"internalType":"int256","name":"","type":"int256"}],"stateMutability":"view","type":"function"},{"inputs":[{"internalType":"address","name":"c2","type":"address"},{"internalType":"address","name":"c1","type":"address"}],"name":"contract1ToNode1","outputs":[],"stateMutability":"payable","type":"function"},{"inputs":[{"internalType":"address","name":"c3","type":"address"},{"internalType":"address","name":"c2","type":"address"}],"name":"contractToNode2","outputs":[],"stateMutability":"payable","type":"function"},{"inputs":[{"internalType":"address","name":"c1","type":"address"},{"internalType":"address","name":"c3","type":"address"}],"name":"contractToNode3","outputs":[],"stateMutability":"payable","type":"function"},{"inputs":[{"internalType":"uint256","name":"","type":"uint256"}],"name":"nodes","outputs":[{"internalType":"address payable","name":"addr","type":"address"},{"internalType":"uint256","name":"power","type":"uint256"},{"internalType":"int256","name":"price","type":"int256"},{"internalType":"bool","name":"forward","type":"bool"}],"stateMutability":"view","type":"function"},{"inputs":[],"name":"sendToContract","outputs":[],"stateMutability":"payable","type":"function"}],"bytecode":"60806040526040516106a13803806106a183398101604081905261002291610047565b600080546001600160a01b0319166001600160a01b0392909216919091179055610077565b60006020828403121561005957600080fd5b81516001600160a01b038116811461007057600080fd5b9392505050565b61061b806100866000396000f3fe6080604052600436106100705760003560e01c8063a72d40f71161004e578063a72d40f71461010b578063d04488ab1461011e578063f4cf075d14610131578063f809e3991461014457600080fd5b80630a4c137c146100755780631c53c2801461007f5780636c90157b146100d0575b600080fd5b61007d610157565b005b34801561008b57600080fd5b5061009f61009a3660046104e5565b610194565b604080516001600160a01b039095168552602085019390935291830152151560608201526080015b60405180910390f35b3480156100dc57600080fd5b506100fd6100eb366004610513565b60026020526000908152604090205481565b6040519081526020016100c7565b61007d610119366004610537565b6101db565b61007d61012c366004610537565b6102b4565b61007d61013f366004610570565b610331565b61007d610152366004610537565b61046a565b600080546040516001600160a01b03909116913480156108fc02929091818181858888f19350505050158015610191573d6000803e3d6000fd5b50565b600181815481106101a457600080fd5b600091825260209091206004909102018054600182015460028301546003909301546001600160a01b039092169350919060ff1684565b60016002815481106101ef576101ef6105a5565b600091825260209091206003600490920201015460ff161515600103610249576040516001600160a01b038316903480156108fc02916000818181858888f19350505050158015610244573d6000803e3d6000fd5b505050565b600160028154811061025d5761025d6105a5565b6000918252602082206003600490920201015460ff16151590036102b0576040516001600160a01b038216903480156108fc02916000818181858888f19350505050158015610244573d6000803e3d6000fd5b5050565b60016000815481106102c8576102c86105a5565b600091825260209091206003600490920201015460ff16151560010361031d576040516001600160a01b038316903480156108fc02916000818181858888f19350505050158015610244573d6000803e3d6000fd5b600160008154811061025d5761025d6105a5565b6001600160a01b0383166000908152600260205260408120829055600190821261035d5750600161036c565b506000610369826105bb565b91505b604080516080810182526001600160a01b039586168152602081019485529081019283529015156060820190815260018054808201825560009190915291517fb10e2d527612073b26eecdfd717e6a320cf44b4afac2b0732d9fcbe2b7fa0cf6600490930292830180546001600160a01b031916919096161790945591517fb10e2d527612073b26eecdfd717e6a320cf44b4afac2b0732d9fcbe2b7fa0cf7830155517fb10e2d527612073b26eecdfd717e6a320cf44b4afac2b0732d9fcbe2b7fa0cf882015590517fb10e2d527612073b26eecdfd717e6a320cf44b4afac2b0732d9fcbe2b7fa0cf9909101805460ff1916911515919091179055565b6001808154811061047d5761047d6105a5565b600091825260209091206003600490920201015460ff1615156001036104d2576040516001600160a01b038316903480156108fc02916000818181858888f19350505050158015610244573d6000803e3d6000fd5b6001808154811061025d5761025d6105a5565b6000602082840312156104f757600080fd5b5035919050565b6001600160a01b038116811461019157600080fd5b60006020828403121561052557600080fd5b8135610530816104fe565b9392505050565b6000806040838503121561054a57600080fd5b8235610555816104fe565b91506020830135610565816104fe565b809150509250929050565b60008060006060848603121561058557600080fd5b8335610590816104fe565b95602085013595506040909401359392505050565b634e487b7160e01b600052603260045260246000fd5b6000600160ff1b82016105de57634e487b7160e01b600052601160045260246000fd5b506000039056fea26469706673582212206323b35e8c96ea1cb69432886121674361fc5a98f125f4d2a9eb2509d5cf49b064736f6c63430008110033","bytecodeSha1":"5e820be70901d81f02948b6c090d8f19cef353e0","compiler":{"evm_version":"istanbul","optimizer":{"enabled":true,"runs":200},"version":"0.8.17+commit.8df45f5f"},"contractName":"ElectricityTrading_test","language":"Solidity","natspec":{"kind":"dev","methods":{},"version":1},"opcodes":"PUSH1 0x80 PUSH1 0x40 MSTORE PUSH1 0x4 CALLDATASIZE LT PUSH2 0x70 JUMPI PUSH1 0x0 CALLDATALOAD PUSH1 0xE0 SHR DUP1 PUSH4 0xA72D40F7 GT PUSH2 0x4E JUMPI DUP1 PUSH4 0xA72D40F7 EQ PUSH2 0x10B JUMPI DUP1 PUSH4 0xD04488AB EQ PUSH2 0x11E JUMPI DUP1 PUSH4 0xF4CF075D EQ PUSH2 0x131 JUMPI DUP1 PUSH4 0xF809E399 EQ PUSH2 0x144 JUMPI PUSH1 0x0 DUP1 REVERT JUMPDEST DUP1 PUSH4 0xA4C137C EQ PUSH2 0x75 JUMPI DUP1 PUSH4 0x1C53C280 EQ PUSH2 0x7F JUMPI DUP1 PUSH4 0x6C90157B EQ PUSH2 0xD0 JUMPI JUMPDEST PUSH1 0x0 DUP1 REVERT JUMPDEST PUSH2 0x7D PUSH2 0x157 JUMP JUMPDEST STOP JUMPDEST CALLVALUE DUP1 ISZERO PUSH2 0x8B JUMPI PUSH1 0x0 DUP1 REVERT JUMPDEST POP PUSH2 0x9F PUSH2 0x9A CALLDATASIZE PUSH1 0x4 PUSH2 0x4E5 JUMP JUMPDEST PUSH2 0x194 JUMP JUMPDEST PUSH1 0x40 DUP1 MLOAD PUSH1 0x1 PUSH1 0x1 PUSH1 0xA0 SHL SUB SWAP1 SWAP6 AND DUP6 MSTORE PUSH1 0x20 DUP6 ADD SWAP4 SWAP1 SWAP4 MSTORE SWAP2 DUP4 ADD MSTORE ISZERO ISZERO PUSH1 0x60 DUP3 ADD MSTORE PUSH1 0x80 ADD JUMPDEST PUSH1 0x40 MLOAD DUP1 SWAP2 SUB SWAP1 RETURN JUMPDEST CALLVALUE DUP1 ISZERO PUSH2 0xDC JUMPI PUSH1 0x0 DUP1 REVERT JUMPDEST POP PUSH2 0xFD PUSH2 0xEB CALLDATASIZE PUSH1 0x4 PUSH2 0x513 JUMP JUMPDEST PUSH1 0x2 PUSH1 0x20 MSTORE PUSH1 0x0 SWAP1 DUP2 MSTORE PUSH1 0x40 SWAP1 KECCAK256 SLOAD DUP2 JUMP JUMPDEST PUSH1 0x40 MLOAD SWAP1 DUP2 MSTORE PUSH1 0x20 ADD PUSH2 0xC7 JUMP JUMPDEST PUSH2 0x7D PUSH2 0x119 CALLDATASIZE PUSH1 0x4 PUSH2 0x537 JUMP JUMPDEST PUSH2 0x1DB JUMP JUMPDEST PUSH2 0x7D PUSH2 0x12C CALLDATASIZE PUSH1 0x4 PUSH2 0x537 JUMP JUMPDEST PUSH2 0x2B4 JUMP JUMPDEST PUSH2 0x7D PUSH2 0x13F CALLDATASIZE PUSH1 0x4 PUSH2 0x570 JUMP JUMPDEST PUSH2 0x331 JUMP JUMPDEST PUSH2 0x7D PUSH2 0x152 CALLDATASIZE PUSH1 0x4 PUSH2 0x537 JUMP JUMPDEST PUSH2 0x46A JUMP JUMPDEST PUSH1 0x0 DUP1 SLOAD PUSH1 0x40 MLOAD PUSH1 0x1 PUSH1 0x1 PUSH1 0xA0 SHL SUB SWAP1 SWAP2 AND SWAP2 CALLVALUE DUP1 ISZERO PUSH2 0x8FC MUL SWAP3 SWAP1 SWAP2 DUP2 DUP2 DUP2 DUP6 DUP9 DUP9 CALL SWAP4 POP POP POP POP ISZERO DUP1 ISZERO PUSH2 0x191 JUMPI RETURNDATASIZE PUSH1 0x0 DUP1 RETURNDATACOPY RETURNDATASIZE PUSH1 0x0 REVERT JUMPDEST POP JUMP JUMPDEST PUSH1 0x1 DUP2 DUP2 SLOAD DUP2 LT PUSH2 0x1A4 JUMPI PUSH1 0x0 DUP1 REVERT JUMPDEST PUSH1 0x0 SWAP2 DUP3 MSTORE PUSH1 0x20 SWAP1 SWAP2 KECCAK256 PUSH1 0x4 SWAP1 SWAP2 MUL ADD DUP1 SLOAD PUSH1 0x1 DUP3 ADD SLOAD PUSH1 0x2 DUP4 ADD SLOAD PUSH1 0x3 SWAP1 SWAP4 ADD SLOAD PUSH1 0x1 PUSH1 0x1 PUSH1 0xA0 SHL SUB SWAP1 SWAP3 AND SWAP4 POP SWAP2 SWAP1 PUSH1 0xFF AND DUP5 JUMP JUMPDEST PUSH1 0x1 PUSH1 0x2 DUP2 SLOAD DUP2 LT PUSH2 0x1EF JUMPI PUSH2 0x1EF PUSH2 0x5A5 JUMP JUMPDEST PUSH1 0x0 SWAP2 DUP3 MSTORE PUSH1 0x20 SWAP1 SWAP2 KECCAK256 PUSH1 0x3 PUSH1 0x4 SWAP1 SWAP3 MUL ADD ADD SLOAD PUSH1 0xFF AND ISZERO ISZERO PUSH1 0x1 SUB PUSH2 0x249 JUMPI PUSH1 0x40 MLOAD PUSH1 0x1 PUSH1 0x1 PUSH1 0xA0 SHL SUB DUP4 AND SWAP1 CALLVALUE DUP1 ISZERO PUSH2 0x8FC MUL SWAP2 PUSH1 0x0 DUP2 DUP2 DUP2 DUP6 DUP9 DUP9 CALL SWAP4 POP POP POP POP ISZERO DUP1 ISZERO PUSH2 0x244 JUMPI RETURNDATASIZE PUSH1 0x0 DUP1 RETURNDATACOPY RETURNDATASIZE PUSH1 0x0 REVERT JUMPDEST POP POP POP JUMP JUMPDEST PUSH1 0x1 PUSH1 0x2 DUP2 SLOAD DUP2 LT PUSH2 0x25D JUMPI PUSH2 0x25D PUSH2 0x5A5 JUMP JUMPDEST PUSH1 0x0 SWAP2 DUP3 MSTORE PUSH1 0x20 DUP3 KECCAK256 PUSH1 0x3 PUSH1 0x4 SWAP1 SWAP3 MUL ADD ADD SLOAD PUSH1 0xFF AND ISZERO ISZERO SWAP1 SUB PUSH2 0x2B0 JUMPI PUSH1 0x40 MLOAD PUSH1 0x1 PUSH1 0x1 PUSH1 0xA0 SHL SUB DUP3 AND SWAP1 CALLVALUE DUP1 ISZERO PUSH2 0x8FC MUL SWAP2 PUSH1 0x0 DUP2 DUP2 DUP2 DUP6 DUP9 DUP9 CALL SWAP4 POP POP POP POP ISZERO DUP1 ISZERO PUSH2 0x244 JUMPI RETURNDATASIZE PUSH1 0x0 DUP1 RETURNDATACOPY RETURNDATASIZE PUSH1 0x0 REVERT JUMPDEST POP POP JUMP JUMPDEST PUSH1 0x1 PUSH1 0x0 DUP2 SLOAD DUP2 LT PUSH2 0x2C8 JUMPI PUSH2 0x2C8 PUSH2 0x5A5 JUMP JUMPDEST PUSH1 0x0 SWAP2 DUP3 MSTORE PUSH1 0x20 SWAP1 SWAP2 KECCAK256 PUSH1 0x3 PUSH1 0x4 SWAP1 SWAP3 MUL ADD ADD SLOAD PUSH1 0xFF AND ISZERO ISZERO PUSH1 0x1 SUB PUSH2 0x31D JUMPI PUSH1 0x40 MLOAD PUSH1 0x1 PUSH1 0x1 PUSH1 0xA0 SHL SUB DUP4 AND SWAP1 CALLVALUE DUP1 ISZERO PUSH2 0x8FC MUL SWAP2 PUSH1 0x0 DUP2 DUP2 DUP2 DUP6 DUP9 DUP9 CALL SWAP4 POP POP POP POP ISZERO DUP1 ISZERO PUSH2 0x244 JUMPI RETURNDATASIZE PUSH1 0x0 DUP1 RETURNDATACOPY RETURNDATASIZE PUSH1 0x0 REVERT JUMPDEST PUSH1 0x1 PUSH1 0x0 DUP2 SLOAD DUP2 LT PUSH2 0x25D JUMPI PUSH2 0x25D PUSH2 0x5A5 JUMP JUMPDEST PUSH1 0x1 PUSH1 0x1 PUSH1 0xA0 SHL SUB DUP4 AND PUSH1 0x0 SWAP1 DUP2 MSTORE PUSH1 0x2 PUSH1 0x20 MSTORE PUSH1 0x40 DUP2 KECCAK256 DUP3 SWAP1 SSTORE PUSH1 0x1 SWAP1 DUP3 SLT PUSH2 0x35D JUMPI POP PUSH1 0x1 PUSH2 0x36C JUMP JUMPDEST POP PUSH1 0x0 PUSH2 0x369 DUP3 PUSH2 0x5BB JUMP JUMPDEST SWAP2 POP JUMPDEST PUSH1 0x40 DUP1 MLOAD PUSH1 0x80 DUP2 ADD DUP3 MSTORE PUSH1 0x1 PUSH1 0x1 PUSH1 0xA0 SHL SUB SWAP6 DUP7 AND DUP2 MSTORE PUSH1 0x20 DUP2 ADD SWAP5 DUP6 MSTORE SWAP1 DUP2 ADD SWAP3 DUP4 MSTORE SWAP1 ISZERO ISZERO PUSH1 0x60 DUP3 ADD SWAP1 DUP2 MSTORE PUSH1 0x1 DUP1 SLOAD DUP1 DUP3 ADD DUP3 SSTORE PUSH1 0x0 SWAP2 SWAP1 SWAP2 MSTORE SWAP2 MLOAD PUSH32 0xB10E2D527612073B26EECDFD717E6A320CF44B4AFAC2B0732D9FCBE2B7FA0CF6 PUSH1 0x4 SWAP1 SWAP4 MUL SWAP3 DUP4 ADD DUP1 SLOAD PUSH1 0x1 PUSH1 0x1 PUSH1 0xA0 SHL SUB NOT AND SWAP2 SWAP1 SWAP7 AND OR SWAP1 SWAP5 SSTORE SWAP2 MLOAD PUSH32 0xB10E2D527612073B26EECDFD717E6A320CF44B4AFAC2B0732D9FCBE2B7FA0CF7 DUP4 ADD SSTORE MLOAD PUSH32 0xB10E2D527612073B26EECDFD717E6A320CF44B4AFAC2B0732D9FCBE2B7FA0CF8 DUP3 ADD SSTORE SWAP1 MLOAD PUSH32 0xB10E2D527612073B26EECDFD717E6A320CF44B4AFAC2B0732D9FCBE2B7FA0CF9 SWAP1 SWAP2 ADD DUP1 SLOAD PUSH1 0xFF NOT AND SWAP2 ISZERO ISZERO SWAP2 SWAP1 SWAP2 OR SWAP1 SSTORE JUMP JUMPDEST PUSH1 0x1 DUP1 DUP2 SLOAD DUP2 LT PUSH2 0x47D JUMPI PUSH2 0x47D PUSH2 0x5A5 JUMP JUMPDEST PUSH1 0x0 SWAP2 DUP3 MSTORE PUSH1 0x20 SWAP1 SWAP2 KECCAK256 PUSH1 0x3 PUSH1 0x4 SWAP1 SWAP3 MUL ADD ADD SLOAD PUSH1 0xFF AND ISZERO ISZERO PUSH1 0x1 SUB PUSH2 0x4D2 JUMPI PUSH1 0x40 MLOAD PUSH1 0x1 PUSH1 0x1 PUSH1 0xA0 SHL SUB DUP4 AND SWAP1 CALLVALUE DUP1 ISZERO PUSH2 0x8FC MUL SWAP2 PUSH1 0x0 DUP2 DUP2 DUP2 DUP6 DUP9 DUP9 CALL SWAP4 POP POP POP POP ISZERO DUP1 ISZERO PUSH2 0x244 JUMPI RETURNDATASIZE PUSH1 0x0 DUP1 RETURNDATACOPY RETURNDATASIZE PUSH1 0x0 REVERT JUMPDEST PUSH1 0x1 DUP1 DUP2 SLOAD DUP2 LT PUSH2 0x25D JUMPI PUSH2 0x25D PUSH2 0x5A5 JUMP JUMPDEST PUSH1 0x0 PUSH1 0x20 DUP3 DUP5 SUB SLT ISZERO PUSH2 0x4F7 JUMPI PUSH1 0x0 DUP1 REVERT JUMPDEST POP CALLDATALOAD SWAP2 SWAP1 POP JUMP JUMPDEST PUSH1 0x1 PUSH1 0x1 PUSH1 0xA0 SHL SUB DUP2 AND DUP2 EQ PUSH2 0x191 JUMPI PUSH1 0x0 DUP1 REVERT JUMPDEST PUSH1 0x0 PUSH1 0x20 DUP3 DUP5 SUB SLT ISZERO PUSH2 0x525 JUMPI PUSH1 0x0 DUP1 REVERT JUMPDEST DUP2 CALLDATALOAD PUSH2 0x530 DUP2 PUSH2 0x4FE JUMP JUMPDEST SWAP4 SWAP3 POP POP POP JUMP JUMPDEST PUSH1 0x0 DUP1 PUSH1 0x40 DUP4 DUP6 SUB SLT ISZERO PUSH2 0x54A JUMPI PUSH1 0x0 DUP1 REVERT JUMPDEST DUP3 CALLDATALOAD PUSH2 0x555 DUP2 PUSH2 0x4FE JUMP JUMPDEST SWAP2 POP PUSH1 0x20 DUP4 ADD CALLDATALOAD PUSH2 0x565 DUP2 PUSH2 0x4FE JUMP JUMPDEST DUP1 SWAP2 POP POP SWAP3 POP SWAP3 SWAP1 POP JUMP JUMPDEST PUSH1 0x0 DUP1 PUSH1 0x0 PUSH1 0x60 DUP5 DUP7 SUB SLT ISZERO PUSH2 0x585 JUMPI PUSH1 0x0 DUP1 REVERT JUMPDEST DUP4 CALLDATALOAD PUSH2 0x590 DUP2 PUSH2 0x4FE JUMP JUMPDEST SWAP6 PUSH1 0x20 DUP6 ADD CALLDATALOAD SWAP6 POP PUSH1 0x40 SWAP1 SWAP5 ADD CALLDATALOAD SWAP4 SWAP3 POP POP POP JUMP JUMPDEST PUSH4 0x4E487B71 PUSH1 0xE0 SHL PUSH1 0x0 MSTORE PUSH1 0x32 PUSH1 0x4 MSTORE PUSH1 0x24 PUSH1 0x0 REVERT JUMPDEST PUSH1 0x0 PUSH1 0x1 PUSH1 0xFF SHL DUP3 ADD PUSH2 0x5DE JUMPI PUSH4 0x4E487B71 PUSH1 0xE0 SHL PUSH1 0x0 MSTORE PUSH1 0x11 PUSH1 0x4 MSTORE PUSH1 0x24 PUSH1 0x0 REVERT JUMPDEST POP PUSH1 0x0 SUB SWAP1 JUMP INVALID LOG2 PUSH5 0x6970667358 0x22 SLT KECCAK256 PUSH4 0x23B35E8C SWAP7 0xEA SHR 0xB6 SWAP5 ORIGIN DUP9 PUSH2 0x2167 NUMBER PUSH2 0xFC5A SWAP9 CALL 0x25 DELEGATECALL 0xD2 0xA9 0xEB 0x25 MULMOD 0xD5 0xCF 0x49 0xB0 PUSH5 0x736F6C6343 STOP ADDMOD GT STOP CALLER ","sha1":"a2fc0f9648fb1ba6b2d861eb1772b2aed8067ff1","source":"//SPDX-License-Identifier: MIT\npragma solidity ^0.8.15;\n\ncontract ElectricityTrading_test {\n    address c;\n\n    // address c1;\n    // address c2;\n    // address c3;\n    //bool _forward;\n\n    constructor(address payable _c) payable {\n        c = _c;\n        //     c1 = _c1;\n        //     c2 = _c2;\n        //     c3 = _c3;\n    }\n\n    struct Nodes {\n        address payable addr;\n        uint256 power;\n        int256 price;\n        bool forward;\n    }\n\n    Nodes[] public nodes;\n    mapping(address => int256) public addressToPrice;\n\n    function addNodes(\n        address payable _address,\n        uint256 _power,\n        int256 _price\n    ) public payable {\n        addressToPrice[_address] = _price;\n        bool _forward = true;\n        if (_price >= 0) {\n            _forward = true;\n        } else {\n            _forward = false;\n            _price = -_price;\n        }\n        nodes.push(\n            Nodes({\n                addr: _address,\n                power: _power,\n                price: _price,\n                forward: _forward\n            })\n        );\n    }\n\n    function sendToContract() public payable {\n        //c.transfer(msg.sender);\n        payable(c).transfer(msg.value);\n    }\n\n    function contract1ToNode1(address c2, address c1) public payable {\n        if (nodes[0].forward == true) {\n            payable(c2).transfer(msg.value);\n        } else if (nodes[0].forward == false) {\n            payable(c1).transfer(msg.value);\n        }\n    }\n\n    function contractToNode2(address c3, address c2) public payable {\n        if (nodes[1].forward == true) {\n            payable(c3).transfer(msg.value);\n        } else if (nodes[1].forward == false) {\n            payable(c2).transfer(msg.value);\n        }\n    }\n\n    function contractToNode3(address c1, address c3) public payable {\n        if (nodes[2].forward == true) {\n            payable(c1).transfer(msg.value);\n        } else if (nodes[2].forward == false) {\n            payable(c3).transfer(msg.value);\n        }\n    }\n}\n","sourcePath":"contracts/ElectricityTrading_test.sol","type":"contract","deployment":{"address":"0x7Ff68CFC6e885BFA121440a851BdD3CAec12AbF4","chainid":"4","blockHeight":11400188}}