{"abi":[{"inputs":[{"internalType":"address payable","name":"_addr","type":"address"},{"internalType":"int256","name":"_power","type":"int256"},{"internalType":"uint256","name":"_price","type":"uint256"}],"name":"addProsumers","outputs":[],"stateMutability":"payable","type":"function"},{"inputs":[{"internalType":"address","name":"","type":"address"}],"name":"address2power","outputs":[{"internalType":"int256","name":"","type":"int256"}],"stateMutability":"view","type":"function"},{"inputs":[{"internalType":"uint256","name":"","type":"uint256"}],"name":"prosumers","outputs":[{"internalType":"address payable","name":"addr","type":"address"},{"internalType":"int256","name":"power","type":"int256"},{"internalType":"uint256","name":"price","type":"uint256"},{"internalType":"bool","name":"forward","type":"bool"}],"stateMutability":"view","type":"function"},{"inputs":[],"name":"send_money","outputs":[],"stateMutability":"payable","type":"function"}],"bytecode":"608060405234801561001057600080fd5b5061038a806100206000396000f3fe60806040526004361061003f5760003560e01c80634cfe37b5146100445780637ae0e70114610059578063ba53916e146100aa578063f1e0bdf4146100e5575b600080fd5b6100576100523660046102b8565b6100ed565b005b34801561006557600080fd5b506100796100743660046102ed565b61021f565b604080516001600160a01b039095168552602085019390935291830152151560608201526080015b60405180910390f35b3480156100b657600080fd5b506100d76100c5366004610306565b60026020526000908152604090205481565b6040519081526020016100a1565b610057610266565b6001600160a01b03831660009081526002602052604081208390556001908312156101215750600061011e8361032a565b92505b604080516080810182526001600160a01b039586168152602081019485529081019283529015156060820190815260018054808201825560009190915291517fb10e2d527612073b26eecdfd717e6a320cf44b4afac2b0732d9fcbe2b7fa0cf6600490930292830180546001600160a01b031916919096161790945591517fb10e2d527612073b26eecdfd717e6a320cf44b4afac2b0732d9fcbe2b7fa0cf7830155517fb10e2d527612073b26eecdfd717e6a320cf44b4afac2b0732d9fcbe2b7fa0cf882015590517fb10e2d527612073b26eecdfd717e6a320cf44b4afac2b0732d9fcbe2b7fa0cf9909101805460ff1916911515919091179055565b6001818154811061022f57600080fd5b600091825260209091206004909102018054600182015460028301546003909301546001600160a01b039092169350919060ff1684565b600080546040516001600160a01b03909116913480156108fc02929091818181858888f193505050501580156102a0573d6000803e3d6000fd5b50565b6001600160a01b03811681146102a057600080fd5b6000806000606084860312156102cd57600080fd5b83356102d8816102a3565b95602085013595506040909401359392505050565b6000602082840312156102ff57600080fd5b5035919050565b60006020828403121561031857600080fd5b8135610323816102a3565b9392505050565b6000600160ff1b820161034d57634e487b7160e01b600052601160045260246000fd5b506000039056fea26469706673582212204ff6b2cc152cede61e456d74ecfb5ea8e99f069ec9109933ef679d838da970cc64736f6c63430008110033","bytecodeSha1":"a1861ee6399ecc98b852723ffe6b617a52912cb0","compiler":{"evm_version":"istanbul","optimizer":{"enabled":true,"runs":200},"version":"0.8.17+commit.8df45f5f"},"contractName":"ElectricityTrading_test","language":"Solidity","natspec":{"kind":"dev","methods":{},"version":1},"opcodes":"PUSH1 0x80 PUSH1 0x40 MSTORE PUSH1 0x4 CALLDATASIZE LT PUSH2 0x3F JUMPI PUSH1 0x0 CALLDATALOAD PUSH1 0xE0 SHR DUP1 PUSH4 0x4CFE37B5 EQ PUSH2 0x44 JUMPI DUP1 PUSH4 0x7AE0E701 EQ PUSH2 0x59 JUMPI DUP1 PUSH4 0xBA53916E EQ PUSH2 0xAA JUMPI DUP1 PUSH4 0xF1E0BDF4 EQ PUSH2 0xE5 JUMPI JUMPDEST PUSH1 0x0 DUP1 REVERT JUMPDEST PUSH2 0x57 PUSH2 0x52 CALLDATASIZE PUSH1 0x4 PUSH2 0x2B8 JUMP JUMPDEST PUSH2 0xED JUMP JUMPDEST STOP JUMPDEST CALLVALUE DUP1 ISZERO PUSH2 0x65 JUMPI PUSH1 0x0 DUP1 REVERT JUMPDEST POP PUSH2 0x79 PUSH2 0x74 CALLDATASIZE PUSH1 0x4 PUSH2 0x2ED JUMP JUMPDEST PUSH2 0x21F JUMP JUMPDEST PUSH1 0x40 DUP1 MLOAD PUSH1 0x1 PUSH1 0x1 PUSH1 0xA0 SHL SUB SWAP1 SWAP6 AND DUP6 MSTORE PUSH1 0x20 DUP6 ADD SWAP4 SWAP1 SWAP4 MSTORE SWAP2 DUP4 ADD MSTORE ISZERO ISZERO PUSH1 0x60 DUP3 ADD MSTORE PUSH1 0x80 ADD JUMPDEST PUSH1 0x40 MLOAD DUP1 SWAP2 SUB SWAP1 RETURN JUMPDEST CALLVALUE DUP1 ISZERO PUSH2 0xB6 JUMPI PUSH1 0x0 DUP1 REVERT JUMPDEST POP PUSH2 0xD7 PUSH2 0xC5 CALLDATASIZE PUSH1 0x4 PUSH2 0x306 JUMP JUMPDEST PUSH1 0x2 PUSH1 0x20 MSTORE PUSH1 0x0 SWAP1 DUP2 MSTORE PUSH1 0x40 SWAP1 KECCAK256 SLOAD DUP2 JUMP JUMPDEST PUSH1 0x40 MLOAD SWAP1 DUP2 MSTORE PUSH1 0x20 ADD PUSH2 0xA1 JUMP JUMPDEST PUSH2 0x57 PUSH2 0x266 JUMP JUMPDEST PUSH1 0x1 PUSH1 0x1 PUSH1 0xA0 SHL SUB DUP4 AND PUSH1 0x0 SWAP1 DUP2 MSTORE PUSH1 0x2 PUSH1 0x20 MSTORE PUSH1 0x40 DUP2 KECCAK256 DUP4 SWAP1 SSTORE PUSH1 0x1 SWAP1 DUP4 SLT ISZERO PUSH2 0x121 JUMPI POP PUSH1 0x0 PUSH2 0x11E DUP4 PUSH2 0x32A JUMP JUMPDEST SWAP3 POP JUMPDEST PUSH1 0x40 DUP1 MLOAD PUSH1 0x80 DUP2 ADD DUP3 MSTORE PUSH1 0x1 PUSH1 0x1 PUSH1 0xA0 SHL SUB SWAP6 DUP7 AND DUP2 MSTORE PUSH1 0x20 DUP2 ADD SWAP5 DUP6 MSTORE SWAP1 DUP2 ADD SWAP3 DUP4 MSTORE SWAP1 ISZERO ISZERO PUSH1 0x60 DUP3 ADD SWAP1 DUP2 MSTORE PUSH1 0x1 DUP1 SLOAD DUP1 DUP3 ADD DUP3 SSTORE PUSH1 0x0 SWAP2 SWAP1 SWAP2 MSTORE SWAP2 MLOAD PUSH32 0xB10E2D527612073B26EECDFD717E6A320CF44B4AFAC2B0732D9FCBE2B7FA0CF6 PUSH1 0x4 SWAP1 SWAP4 MUL SWAP3 DUP4 ADD DUP1 SLOAD PUSH1 0x1 PUSH1 0x1 PUSH1 0xA0 SHL SUB NOT AND SWAP2 SWAP1 SWAP7 AND OR SWAP1 SWAP5 SSTORE SWAP2 MLOAD PUSH32 0xB10E2D527612073B26EECDFD717E6A320CF44B4AFAC2B0732D9FCBE2B7FA0CF7 DUP4 ADD SSTORE MLOAD PUSH32 0xB10E2D527612073B26EECDFD717E6A320CF44B4AFAC2B0732D9FCBE2B7FA0CF8 DUP3 ADD SSTORE SWAP1 MLOAD PUSH32 0xB10E2D527612073B26EECDFD717E6A320CF44B4AFAC2B0732D9FCBE2B7FA0CF9 SWAP1 SWAP2 ADD DUP1 SLOAD PUSH1 0xFF NOT AND SWAP2 ISZERO ISZERO SWAP2 SWAP1 SWAP2 OR SWAP1 SSTORE JUMP JUMPDEST PUSH1 0x1 DUP2 DUP2 SLOAD DUP2 LT PUSH2 0x22F JUMPI PUSH1 0x0 DUP1 REVERT JUMPDEST PUSH1 0x0 SWAP2 DUP3 MSTORE PUSH1 0x20 SWAP1 SWAP2 KECCAK256 PUSH1 0x4 SWAP1 SWAP2 MUL ADD DUP1 SLOAD PUSH1 0x1 DUP3 ADD SLOAD PUSH1 0x2 DUP4 ADD SLOAD PUSH1 0x3 SWAP1 SWAP4 ADD SLOAD PUSH1 0x1 PUSH1 0x1 PUSH1 0xA0 SHL SUB SWAP1 SWAP3 AND SWAP4 POP SWAP2 SWAP1 PUSH1 0xFF AND DUP5 JUMP JUMPDEST PUSH1 0x0 DUP1 SLOAD PUSH1 0x40 MLOAD PUSH1 0x1 PUSH1 0x1 PUSH1 0xA0 SHL SUB SWAP1 SWAP2 AND SWAP2 CALLVALUE DUP1 ISZERO PUSH2 0x8FC MUL SWAP3 SWAP1 SWAP2 DUP2 DUP2 DUP2 DUP6 DUP9 DUP9 CALL SWAP4 POP POP POP POP ISZERO DUP1 ISZERO PUSH2 0x2A0 JUMPI RETURNDATASIZE PUSH1 0x0 DUP1 RETURNDATACOPY RETURNDATASIZE PUSH1 0x0 REVERT JUMPDEST POP JUMP JUMPDEST PUSH1 0x1 PUSH1 0x1 PUSH1 0xA0 SHL SUB DUP2 AND DUP2 EQ PUSH2 0x2A0 JUMPI PUSH1 0x0 DUP1 REVERT JUMPDEST PUSH1 0x0 DUP1 PUSH1 0x0 PUSH1 0x60 DUP5 DUP7 SUB SLT ISZERO PUSH2 0x2CD JUMPI PUSH1 0x0 DUP1 REVERT JUMPDEST DUP4 CALLDATALOAD PUSH2 0x2D8 DUP2 PUSH2 0x2A3 JUMP JUMPDEST SWAP6 PUSH1 0x20 DUP6 ADD CALLDATALOAD SWAP6 POP PUSH1 0x40 SWAP1 SWAP5 ADD CALLDATALOAD SWAP4 SWAP3 POP POP POP JUMP JUMPDEST PUSH1 0x0 PUSH1 0x20 DUP3 DUP5 SUB SLT ISZERO PUSH2 0x2FF JUMPI PUSH1 0x0 DUP1 REVERT JUMPDEST POP CALLDATALOAD SWAP2 SWAP1 POP JUMP JUMPDEST PUSH1 0x0 PUSH1 0x20 DUP3 DUP5 SUB SLT ISZERO PUSH2 0x318 JUMPI PUSH1 0x0 DUP1 REVERT JUMPDEST DUP2 CALLDATALOAD PUSH2 0x323 DUP2 PUSH2 0x2A3 JUMP JUMPDEST SWAP4 SWAP3 POP POP POP JUMP JUMPDEST PUSH1 0x0 PUSH1 0x1 PUSH1 0xFF SHL DUP3 ADD PUSH2 0x34D JUMPI PUSH4 0x4E487B71 PUSH1 0xE0 SHL PUSH1 0x0 MSTORE PUSH1 0x11 PUSH1 0x4 MSTORE PUSH1 0x24 PUSH1 0x0 REVERT JUMPDEST POP PUSH1 0x0 SUB SWAP1 JUMP INVALID LOG2 PUSH5 0x6970667358 0x22 SLT KECCAK256 0x4F 0xF6 0xB2 0xCC ISZERO 0x2C 0xED 0xE6 0x1E GASLIMIT PUSH14 0x74ECFB5EA8E99F069EC9109933EF PUSH8 0x9D838DA970CC6473 PUSH16 0x6C634300081100330000000000000000 ","sha1":"89303b334118137c75b4c85e04914aa8cf1d631d","source":"//SPDX-License-Identifier: MIT\npragma solidity ^0.8.15;\n\ncontract ElectricityTrading_test {\n    address c;\n\n    struct Prosumers {\n        address payable addr;\n        int256 power;\n        uint256 price;\n        bool forward;\n    }\n\n    Prosumers[] public prosumers;\n    mapping(address => int256) public address2power;\n\n    function addProsumers(\n        address payable _addr,\n        int256 _power,\n        uint256 _price\n    ) public payable {\n        address2power[_addr] = _power;\n        bool _forward = true;\n        if (_power < 0) {\n            _forward = false;\n            _power = -_power;\n        }\n        prosumers.push(\n            Prosumers({\n                addr: _addr,\n                power: _power,\n                price: _price,\n                forward: _forward\n            })\n        );\n    }\n\n    function send_money() public payable {\n        payable(c).transfer(msg.value);\n    }\n}\n","sourcePath":"contracts/ElectricityTrading_test.sol","type":"contract","deployment":{"address":"0xFB7c8349a16B2A8Ad3D055305df42c2a38676786","chainid":"4","blockHeight":11402091}}